:020000040040BA
:1000000098364020E10F4000DD0F4000DD0F40003A
:10001000DD0F4000DD0F4000DD0F4000000000005C
:10002000000000000000000000000000DD0F4000A4
:10003000DD0F400000000000DD0F4000DD0F40003C
:10004000DD0F4000DD0F4000DD0F4000DD0F400000
:10005000DD0F4000DD0F4000DD0F4000DD0F4000F0
:10006000DD0F40000000000061024000750240000A
:1000700000000000DD0F4000DD0F4000DD0F4000FC
:100080008902400000000000DD0F4000DD0F40004D
:10009000DD0F4000DD0F4000DD0F4000591E400025
:1000A000DD0F4000DD0F40000000000000000000F8
:1000B00000000000DD0F4000DD0F4000DD0F4000BC
:1000C000DD0F4000DD0F4000DD0F4000A11B4000B0
:1000D000DD0F40008D1C4000DD0F4000DD0F4000B3
:1000E000DD0F4000DD0F400000000000DD0F40008C
:1000F000DD0F4000DD0F4000DD0F4000000000007C
:100100000000000000000000DD0F4000DD0F400097
:10011000DD0F4000DD0F4000000000000000000087
:10012000DD0F4000DD0F4000DD0F4000DD0F40001F
:10013000DD0F4000DD0F400000000000DD0F40003B
:10014000DD0F4000DD0F4000DD0F4000DD0F4000FF
:10015000DD0F4000DD0F400000000000DD0F40001B
:10016000DD0F4000DD0F400010B5054C237833B99A
:10017000044B13B10448AFF300800123237010BD7A
:10018000B8094020000000007C6A40000C4B43B1DD
:100190000C480D4910B5AFF300800C48036823B933
:1001A00010BD0A48036833B97047094B002BF7D0DC
:1001B000BDE810401847064B002BF5D0184700BF8C
:1001C000000000007C6A4000BC0940207C6A4000BE
:1001D000000000002DE9F04180B90C469046002A4D
:1001E0000FDD8F18084E094D306821462B6898475F
:1001F0000134BC42F8D14046BDE8F0814FF0FF38F1
:10020000F9E78046F7E700BF381640203016402057
:100210002DE9F041044688460E4B98470546204696
:100220000D4B9847054013D00C4C04F1600603E0D9
:10023000B4420DD010345DB120684045F8D16168FA
:100240002942F5D0E3689847636825EA0305EFE79C
:10025000BDE8F0817D09400081094000D4094020BB
:1002600008B50A210148024B984708BD000E0E4010
:100270001102400008B50B210148024B984708BD08
:1002800000100E401102400008B510210148024B39
:10029000984708BD00140E4011024000436913F056
:1002A000020F04D0C1F30801C16100207047012092
:1002B0007047436913F0010F05D08369C3F3080346
:1002C0000B600020704701207047000001380228B1
:1002D00015D82DE9F0410E4614469AB10D46DFF8C7
:1002E00038800C4FD8F8000015F8011B3B68984780
:1002F00000280ADBA81B013CF4D1BDE8F0814FF0D7
:10030000FF3070471046BDE8F0814FF0FF30BDE888
:10031000F08100BF341640203816402010B5104838
:10032000104B98473E2100200F4B98470F4CA04799
:100330000028FCD00E4B98470E4A0F4B9A620F4C88
:10034000A0470028FCD002200D4B984700200D4B01
:1003500098470D4B98470248024B984710BD00BF85
:1003600080D1F008B5114000210A4000750A400014
:10037000850A4000013F182000060E40950A400003
:1003800085094000BD094000A910400008B5036878
:10039000074A934203D0074A934204D008BD232062
:1003A000054B984708BD2520034B9847F6E700BF4B
:1003B0000000034000400340BD0A400070B50646FF
:1003C0000C46154601600520844B98479021052076
:1003D000834B98470520834B98473046824B98477C
:1003E000A36943F00203A361804B9C4200F09F800D
:1003F0007F4B9C4200F0C68040F27773C4F8BC305B
:100400000723C4F8C8307B4BE36140F63313E36045
:10041000EB7B1B0203F4FE432A7C02F07F021343B2
:10042000A364AB7B1BB1E36843F40003E360626940
:100430006B7813436361AB781BB1A36943F48043CA
:10044000A3616B791BB9A36943F04003A361AB7946
:100450001BB1A36943F01003A3612B7A1B0403F4BF
:10046000702343F0010323622B7B6A7B13436A8969
:1004700043EA0243A3626B7C1B0103F03003AA7CB6
:10048000920002F00C021343C4F88030EB7C2BB1D5
:10049000D4F8803043F00203C4F880302B7D2BB1B8
:1004A000D4F8803043F00103C4F88030AB69C4F85D
:1004B00090302B7F2BB1D4F8A03043F00043C4F828
:1004C000A030D4F8A0206B7F1B0603F0FE4313433B
:1004D000C4F8A030AB7F2BB1D4F8B03043F0004368
:1004E000C4F8B030D4F8B020EB7F1B0603F0FE4315
:1004F0001343C4F8B03095F820302BB1D4F8C03095
:1005000043F08043C4F8C030D4F8F02095F821308F
:100510001B0603F07C531343C4F8F0300323E36558
:100520004FF0FF33C4F8E030C4F8E43070BD4FF64C
:10053000FC723149114041F48001C3F884102F4905
:10054000114041F40031C3F888102D49114041F4A5
:100550008021C3F8A0102B49114041F48021C3F839
:10056000B01029491140C3F8AC1028481040284960
:100570000143C3F8C01027490A4042F48022C3F85F
:10058000F02039E74FF6FC722349114041F4800115
:10059000C3F884102149114041F40031C3F8881098
:1005A0001F49114041F48021C3F8A0101D4911409A
:1005B00041F48021C3F8B0101B491140C3F8AC10BE
:1005C0001A48104012490143C3F8C01018490A40A4
:1005D00042F48022C3F8F0200EE700BFB90B4000C0
:1005E000DD0A4000A50B40008D03400000000340E1
:1005F00000400340070A0206B40D4020640B40206F
:10060000740B4020940C4020440A4020B40E40203B
:1006100000000202D40F4020641340201411402037
:100620002411402044124020F40F40206414402044
:1006300084154020F8B505460F462D4B5E6D06F03B
:100640000706042E4FD8DFE806F0192222460300E1
:10065000284C274B5B6DC3F307130133B4FBF3F353
:10066000B3FBF7F3244AA2FB03231B09013B234AF4
:1006700002EA0343224A1A43EA61F8BD214B984734
:10068000002814BF4FF4FA444FF40044E1E71E4B36
:10069000984710F0807F0ED000F07000102806D030
:1006A000202806D00028194C18BF002404E0184C5C
:1006B00002E0184C00E0174C022ECAD1164B9847A6
:1006C00010F0FF0211D0C0F30A430133B3FBF2F381
:1006D00003FB04F4BDE7114B9847114C114B002864
:1006E00018BF1C46B5E70024B3E70023B8E700BFF6
:1006F00000060E4000A3E111CDCCCCCC0000FF01E0
:10070000070A0006190B4000290B400000093D00B4
:1007100000127A00001BB700450B4000590B400047
:1007200000389C1C001C4E0EF8B504460F462D4B9D
:100730005E6D06F00706042E50D8DFE806F01A2397
:1007400023470300284D274B5B6DC3F30713013389
:10075000B5FBF3F3B3FBF7F3244AA2FB0323DB0857
:10076000013B1B0403F4F81340F633121A43E26012
:10077000F8BD1F4B9847002814BF4FF4FA454FF4BB
:100780000045E0E71B4B984710F0807F0ED000F04B
:100790007000102806D0202806D00028164D18BF5B
:1007A000002504E0154D02E0154D00E0144D022E29
:1007B000C9D1144B984710F0FF0211D0C0F30A437F
:1007C0000133B3FBF2F303FB05F5BCE70E4B98478F
:1007D0000E4D0F4B002818BF1D46B4E70025B2E7A9
:1007E0000023B7E700060E4000A3E111898888883E
:1007F000190B4000290B400000093D0000127A004F
:10080000001BB700450B4000590B400000389C1CF2
:10081000001C4E0E0268936923F001039361026885
:10082000936913F0010FFBD170470268936943F09D
:10083000010393610268936913F0010FFBD07047C5
:100840000268936943F0010393610268936913F0AE
:10085000010FFBD0936943F002039361026893692F
:1008600043F440739361704703680A48834208D099
:10087000094883420BD10968084B43F82210002035
:1008800070470968064B43F82210002070476FF04C
:1008900007007047000003400040034064134020FD
:1008A000B40D402010B50C4603680F498B420DD0A3
:1008B0000E498B4215D102EBC20148220C4B03EBCF
:1008C000C10120460B4B9847002010BD02EBC2012E
:1008D0004822094B03EBC1012046064B98470020F4
:1008E00010BD6FF0070010BD000003400040034042
:1008F00024114020311F4000740B402070B4036865
:100900001A48834219D01A4883422CD10E681948DC
:10091000D400A318DB00C518C6504B686B60CB1D14
:100920002A46073201F1470013F8011F02F8011FA0
:100930008342F9D1002070BC70470E680E48D40085
:10094000A318DB00C518C6504B686B60CB1D2A4648
:10095000073201F1470013F8011F02F8011F83421B
:10096000F9D10020E7E76FF00700E4E7000003405B
:100970000040034064144020B40E4020C06C704717
:10098000806C7047032811D0042812D002280CBFB5
:100990004FF480710021084A136B23F440730B431A
:1009A0001363936E13F0080FFBD070474FF4407140
:1009B000F1E74FF40071EEE700060E40174A136BA3
:1009C00023F0700318431063936E13F0080F0AD1DD
:1009D0004FF4006311498A6E12F0080F03D1013BF6
:1009E000F9D1012070470D4A136B23F0030343F044
:1009F00002031363936E13F0080F0AD14FF40063E0
:100A000006498A6E12F0080F05D1013BF9D1012089
:100A10007047002070470020704700BF00060E405E
:100A2000A0B90E48036A090289B20D4A1A400D4B5B
:100A30001343194301620246936E13F0010FFBD07A
:100A4000064A116A084B0B431362704703490B6A4D
:100A5000064A1A40064B13430B62704700060E40CD
:100A6000FCFFC8FF0100370000003701FCFFC8FE93
:100A700002003701024B986E00F48030704700BFCF
:100A800000060E404FF00052014B9A62704700BFC3
:100A900000060E40024B986E00F00200704700BF47
:100AA00000060E404FF44412034BDA611A46936E6F
:100AB00013F0400FFBD0704700060E4000F07F009F
:100AC000054BC3F80C01D3F80C2142F01022C3F8F7
:100AD0000C210020704700BF00060E4041F00201CB
:100AE0000C4B00F1100243F822109A6E4FF4807301
:100AF00003FA00F0024209D14FF4006305498A6EFF
:100B0000024205D1013BFAD1012070470020704715
:100B10000020704700060E40024B186800F00800E5
:100B2000704700BF10180E40054B186A20F07E4039
:100B300020F47F0020F47F4020F08F00704700BF3A
:100B400000060E40024B9B6A02481840704700BFE7
:100B500000060E40FF00FF07024B186B00F4005028
:100B6000704700BF00060E4041F003010C4B00F13E
:100B7000100243F822109A6E4FF4807303FA00F0CB
:100B8000024209D14FF4006305498A6E024205D141
:100B9000013BFAD1012070470020704700207047C8
:100BA00000060E404FF4807303FA00F0014B18600A
:100BB000704700BF00060E404FF4807303FA00F048
:100BC000014B5860704700BF00060E4010B4890109
:100BD0004318022444504FF0FF319962196A5A6059
:100BE0005DF8044B7047890105234350704700EBC3
:100BF0008111CA61704700EB81114A62704700EBB6
:100C00008111086A7047F0B486B002240194082468
:100C1000029420240394802404940A9CE40B0594F9
:100C2000B0EB510F14D84C0CA04217D2012501AFE4
:100C300057F82540B1FBF4F4260C84420AD38642CF
:100C40000DD90135052DF3D1002006B0F0BC704759
:100C50000020FAE70020F8E70120F6E700252AB196
:100C600006A901EB850151F8141C1160002BF3D08B
:100C70001D600120E9E710B4AC2303600B684A68EB
:100C8000B3FBF2F31B095C1E4FF6FE72944208D8C8
:100C900003628B6843605023036000205DF8044BBF
:100CA00070470120FAE7436913F0020F02D0C161D7
:100CB0000020704701207047436913F0010F03D0F3
:100CC00083690B700020704701207047F0B583B036
:100CD00005460C46002301932A4B984213D02A4B19
:100CE000984218D0294B98421DD0294B9D4222D0C2
:100CF000284B9D4227D0284B9D422ED0274B9D420A
:100D000035D003B0F0BD1F46254E21463846B047CA
:100D10000028FAD1E9E71F46214E21463846B04760
:100D20000028FAD1E4E71F461D4E21463846B04759
:100D30000028FAD1DFE71F46194E21463846B04752
:100D40000028FAD1DAE71E46164D01A93046A84719
:100D50000028FAD1019B2370D3E71E46114D01A94B
:100D60003046A8470028FAD1019B2370C9E71E46E8
:100D70000C4D01A93046A8470028FAD1019B2370E9
:100D8000BFE700BF00080E40000A0E40001A0E40E8
:100D9000001C0E40004002400080024000C00240A3
:100DA000B90C4000B302400070B50C462A4B984283
:100DB00013D02A4B984219D0294B98421FD0294B67
:100DC000984225D0284B98422BD0284B984231D0BE
:100DD000274B984237D0002070BD1E46254D214636
:100DE0003046A8470028FAD1012070BD1E46214D8B
:100DF00021463046A8470028FAD1012070BD1E4682
:100E00001C4D21463046A8470028FAD1012070BD6C
:100E10001E46184D21463046A8470028FAD1012029
:100E200070BD1E46144D21463046A8470028FAD111
:100E3000012070BD1E46104D21463046A8470028AF
:100E4000FAD1012070BD1E460B4D21463046A84701
:100E50000028FAD1012070BD00080E40000A0E40A3
:100E6000001A0E40001C0E4000400240008002406C
:100E700000C00240A70C40009D02400030B585B084
:100E80000A20484CA0470B20A0471020A047464B03
:100E900002221A61C3F8A02004211961C3F8A0102E
:100EA00010221A61C3F8A0204FF480721A61C3F8AF
:100EB000A0204FF480321A61C3F8A0203B4A0120E1
:100EC0001061C2F8A00008201066C2F890005065BA
:100ED0005062C2F88000156F25F008051567556F40
:100EE00025F00805556750601166C2F890105165ED
:100EF0005162C2F88010106F20F004001067506F2C
:100F000020F00400506751604FF400721A66C3F875
:100F100090205A655A62C3F88020196F21F400713D
:100F20001967596F21F4007159675A602049D1F847
:100F3000142142F01002C1F814214FF480621A66A5
:100F4000C3F890205A655A62C3F88020196F114384
:100F50001967596F114359675A600720A047154D0B
:100F6000154B1D60154A164B1A60164A164B1A602F
:100F7000164B01934FF4E13302934FF40063039354
:100F80000720A04701A92846114B9847114D2B680F
:100F900000219868104CA0472B6800215868A04792
:100FA00005B030BDBD0A4000000E0E4000100E40DE
:100FB0000080084000080E4038164020A90D40006F
:100FC00034164020CD0C40003016402080D1F0086F
:100FD000770C40000800402001214000FEE700009F
:100FE00000B583B0254B264A9A4210D0254B234AA0
:100FF0009A420CD2013B9B1A23F00303043313449F
:101000001F4951F8040B42F8040B9A42F9D11E4BC8
:101010001E4A9A420AD2013B9B1A23F0030304336F
:101020001344002142F8041B9342FBD1184A194B88
:1010300023F07F039360EFF31083B3FA83F35B092C
:10104000019372B6BFF35F8F0022134B1A700199A0
:10105000124A136843F470031360BFF34F8FBFF35A
:101060006F8F29B101220C4B1A70BFF35F8F62B6EC
:101070000B4B98470B4B9847FEE700BF0000402002
:101080007C6A4000B809402094164020B8094020EE
:1010900000ED00E0000040000000402088ED00E08E
:1010A000911E4000911240003B4B1B6B03F0030369
:1010B000012B1DD083B1022B36D0374B1B6B03F0B5
:1010C0007003702B5FD0344B1A6B3449C2F3021299
:1010D0000B68D3400B607047314B5B6913F0800F96
:1010E00014BF4FF400424FF4FA422C4B1A60E4E76D
:1010F000294B1B6A13F0807F03D02A4A274B1A60C2
:10110000DBE7294A254B1A60234B1B6A03F0700367
:10111000102B05D0202BD0D1224A204B1A60CCE7CF
:10112000224A1E4B1A60C8E71B4B1B6A13F0807FD4
:1011300016D01C4A194B1A60174B1B6B03F00303A4
:10114000022BBAD1144A916A926A1448C1F30A4137
:10115000036801FB0333D2B2B3FBF2F30360ACE7E5
:10116000114A0E4B1A600C4B1B6A03F07003102BD4
:1011700005D0202BE0D10B4A084B1A60DCE70B4A64
:10118000064B1A60D8E7054A13680949A1FB031307
:101190005B081360704700BF00060E40040040204B
:1011A00010180E40001BB70000093D0000127A0025
:1011B000ABAAAAAA164B984213D9164B984215D936
:1011C000154B984216D9154B984217D9144B984293
:1011D00018D9144B984294BF134A144A144B1A60FE
:1011E00070474FF08062124B1A607047114A104BE3
:1011F0001A607047104A0E4B1A6070470F4A0C4B2A
:101200001A6070474FF00422094B1A60704700BF04
:10121000BFF35E017FE7BD023FDB1C04FFCE7B0511
:10122000BFC2DA067FB639080005000400060004D4
:10123000000C0E4000010004000200040003000442
:101240000A4B1B6853B1094B1B681A180849914295
:1012500008DB1046054A106018467047054A034BE4
:101260001A60F0E74FF0FF30704700BFA415402030
:10127000FCFF4520983840204FF0FF3070474FF476
:1012800000534B60002070470120704700207047DA
:1012900080B598B07C4B98477C4B98470221012041
:1012A0007B4B98477B4D7C4CDFF8588202E07B48B3
:1012B0007B4B98470DF15F012846A0479DF85F30B2
:1012C000303B382BF6D801A252F823F0B11340007E
:1012D000E5134000F1134000FD13400009144000E5
:1012E00015144000211440002D1440006D144000DE
:1012F000B5124000B5124000B5124000B5124000D2
:10130000B5124000B5124000B5124000B5124000C1
:10131000B5124000B5124000B5124000B5124000B1
:10132000B5124000B5124000B5124000B5124000A1
:10133000B5124000B5124000B5124000B512400091
:10134000B5124000B5124000B5124000B512400081
:10135000B5124000B5124000B5124000B512400071
:10136000B5124000B5124000B5124000B512400061
:10137000B5124000B5124000B5124000B512400051
:10138000B5124000B5124000B5124000B512400041
:10139000B5124000B5124000B5124000B512400031
:1013A000B5124000B5124000B5124000AF12400027
:1013B0003C483B4B98473C4B984740F2FF7200211A
:1013C00008463A4B984701211520394B984740F27F
:1013D000FF7200210220374B984703211520364B1E
:1013E000984767E735482E4B9847354B984761E754
:1013F00034482B4B9847344B98475BE73348284B8E
:101400009847334B984755E73248254B9847324B1E
:1014100098474FE73148224B9847314B984749E767
:1014200030481F4B9847304B984743E72F481C4E96
:10143000B04769462E48A0471A230493C823059352
:101440007823069307AF3A460C2104A8294B984706
:1014500002970C238DF80C3018A8009B40F85C3DD7
:10146000254B984700992548B04723E740460C4E46
:10147000B04707A91E48A047062107980E4B98477A
:1014800007991F48B04715E71D0340007D0E400037
:101490009D1D4000D0644000091F4000D4644000FE
:1014A000E11E40002C6640004D174000D91A400054
:1014B0000D1A40003D1B4000811A40004466400068
:1014C00019164000646640002915400088664000F7
:1014D0004D154000A866400079154000D0664000D8
:1014E000FD154000F8664000C5154000206740002B
:1014F0004467400039174000751840004C674000B1
:10150000846740006867400010B504460348044BF8
:1015100098472046034B984710BD00BFA067400086
:10152000E11E40005916400070B5002440F20C4600
:10153000054DE1B23046A84701343F2CF9D1432193
:101540000020014B984770BD811A4000F8B5002477
:101550004FF400770126074D3A463146E0B2A847DE
:1015600001343F2CF8D14FF4807201214120014B0E
:101570009847F8BD3D1B400000B597B00DF1FF3313
:101580000DF13E01012203F8012F8B42FBD1142300
:1015900010933223119364231293149A4C216846BA
:1015A000064B9847002313934C238DF854300DEBD2
:1015B0000300034B984717B05DF804FB3917400050
:1015C0004119400000B587B01A230093C823019346
:1015D00078230293049A0C216846064B98470C2303
:1015E0008DF814300DEB0300034B984707B05DF8FE
:1015F00004FB00BF391740004119400000B585B019
:1016000004A8F02340F80C3D024B984705B05DF864
:1016100004FB00BF4119400000B597B01A23109396
:10162000C8231193782312936A460C2110A8084B03
:101630009847CDF850D00C238DF8543016A81523B8
:1016400040F80C3D034B984717B05DF804FB00BF12
:10165000391740004119400070B541680668057AA5
:101660008B684A6809680548054CA047314605481B
:10167000A04729460448A04770BD00BFBC67400092
:10168000E11E4000D4674000DC674000082816D9FE
:101690000C2801D809207047102801D80A2070476B
:1016A000142801D80B207047182801D80C20704747
:1016B000202801D80D207047302801D80E2070470F
:1016C000412834BF0F2000207047A0F10903062BEA
:1016D00012D8DFE803F0100406080A0C0E001020F0
:1016E0007047142070471820704720207047302022
:1016F0007047402070470C207047000010B505204F
:10170000084B984760210520074B98470520074B59
:101710009847074B98472320064CA0472520A04711
:1017200010BD00BFB90B4000690B4000A50B400085
:10173000A50A4000BD0A400008B513460A46014606
:101740001846014B984708BD311F4000F0B58BB0DB
:1017500000238DF804308DF8053001228DF8062025
:101760008DF807208DF808208DF809208DF80A30B3
:101770008DF80B308DF80C304FF6FF71ADF80E1070
:101780008DF810308DF811308DF812308DF813303F
:101790008DF8143002218DF815108DF816108DF883
:1017A00017208DF818206FF0604107918DF82020E8
:1017B0008DF821308DF822208DF823308DF82430DB
:1017C0008DF825301F4E204D314628461F4FB84713
:1017D0001F4C31462046B847314628461D4FB84772
:1017E00031462046B84701AA1B4928461B4FB84737
:1017F00028461B4EB04701AA1A492046B847204642
:10180000B047194B98472846184EB0472046B04776
:10181000174B0821C3F88411202283F82323596031
:101820002868416D41F0C4414165C3F8842183F8C3
:1018300025235A602268536D43F0C44353650BB0AF
:10184000F0BD00BF80841E00AC154020350640006E
:10185000B01540202907400000000340BD034000B0
:101860004108400000400340FD16400015084000BC
:1018700000E100E030B593B003684468057A591E72
:1018800040F2FD72914235D8002C33D06A1ED2B29C
:101890003F2A2FD8002200924FF4080201920099AB
:1018A0001E4A02EA83430B43009328461C4B984789
:1018B000030403F4702343F4401301935DB1621EEB
:1018C0000DF1070312A94819413812F8011F03F856
:1018D000011F8342F9D1134C002269462046124B66
:1018E000984723689A6912F0020F0BD10122C3F8BE
:1018F000D02007E044B165B1402D03D90B490C4815
:101900000C4B984713B030BD0B490948094B984719
:10191000F1E70A490648074B9847F3E70000FC1F28
:101920008D164000AC154020FD084000AC6840001A
:1019300078684000E11E4000606840009068400008
:1019400030B593B003684468057A591E40F2FD72C1
:10195000914235D8002C33D06A1ED2B23F2A2FD8FC
:10196000002200924FF40802019200991E4A02EAF6
:1019700083430B43009328461C4B9847030403F40E
:10198000702343F4401301935DB1621E0DF1070310
:1019900012A94819413812F8011F03F8011F8342A8
:1019A000F9D1134C002269462046124B9847236810
:1019B0009A6912F0020F0BD10122C3F8D02007E080
:1019C00044B165B1402D03D90B490C480C4B9847E5
:1019D00013B030BD0B490948094B9847F1E70A4954
:1019E0000648074B9847F3E70000FC1F8D164000A0
:1019F000B0154020FD084000AC6840007868400009
:101A0000E11E4000606840009068400010B582B060
:101A10003F2905D914491548154B984702B010BD08
:101A2000144B0193C0F30A00019B60F31A43019326
:101A3000019B60F30A030193019A012363F3DD62C2
:101A40000192019A63F39F7202AB43F8042D0A4C92
:101A50000A4619462046094B98472268536D43F0C1
:101A600001035365DAE700BF406840007868400032
:101A7000E11E4000FF070088AC15402069084000C7
:101A800010B582B0114B0193019B60F31A4301938F
:101A9000019B6FF30A030193019B012262F3DD6353
:101AA0000193019A022363F39F7202AB43F8042D62
:101AB000074C0A4619462046064B98472268536D44
:101AC00043F00103536502B010BD00BFFF0700885B
:101AD000B01540206908400010B582B03F2805D9F4
:101AE00011491248124B984702B010BD019B61F397
:101AF0001A430193019B62F30A030193019B0122A4
:101B000062F3DD630193019B6FF39F7302A941F8B8
:101B1000043D084C02462046074B98472268536D07
:101B200043F001035365DFE74068400078684000F8
:101B3000E11E4000AC1540206908400010B582B09D
:101B40003F2805D911491248124B984702B010BDE1
:101B5000019B61F31A430193019B62F30A03019312
:101B6000019B012262F3DD630193019B6FF39F737D
:101B700002A941F8043D084C02462046074B98470D
:101B80002268536D43F001035365DFE7406840006E
:101B900078684000E11E4000B01540206908400010
:101BA00030B595B02E4B1B681A6D1392139A12F034
:101BB000010F05D1139B13F0007F43D115B030BD49
:101BC00001221A65274C2268254D27492846274BB4
:101BD000984723682A6803F03F03C2F8A8302368B7
:101BE000013323602368012B25D01F4B1B6813F0A2
:101BF000804F23D11C4B5868C0F303401C4B9847BF
:101C00008DF8080058B11849CB1D0DF10B020730B3
:101C1000084413F8011F02F8011F8342F9D1124B47
:101C20001B6803AA0192C3F3490314A840F8503D6E
:101C3000104B9847BEE700222260D6E70E480F4BB4
:101C40009847B7E7064803684FF000721A650C4BD7
:101C500098470C48094B98470B4B9847AEE700BF95
:101C6000AC154020A8154020B4154020A508400020
:101C7000CB16400009154000F0674000E11E40000F
:101C80002B084000106840004D17400030B595B05B
:101C90002E4B1B681A6D1392139A12F0010F05D187
:101CA000139B13F0007F43D115B030BD01221A659C
:101CB000274C2268254D27492846274B98472368FB
:101CC0002A6803F03F03C2F8A83023680133236079
:101CD0002368012B25D01F4B1B6813F0804F23D1A5
:101CE0001C4B5868C0F303401C4B98478DF8080004
:101CF00058B11849CB1D0DF10B020730084413F8F9
:101D0000011F02F8011F8342F9D1124B1B6803AA7D
:101D10000192C3F3490314A840F8503D104B984773
:101D2000BEE700222260D6E70E480F4B9847B7E780
:101D3000064803684FF000721A650C4B98470C4830
:101D4000094B98470B4B9847AEE700BFB0154020B2
:101D5000A8154020B4154020A5084000CB1640002F
:101D600009154000F0674000E11E40002B084000CC
:101D7000106840004D174000074B03EB50135B0207
:101D800000F01F0201209040DA6B104201D118636D
:101D900070475863704700BF07072000F0B585B053
:101DA00006464F001720224B9847224C009403AB65
:101DB00002AA21463846204DA847204D039A42F4F6
:101DC0008042002128461E4B9847029AB4FBF2F24B
:101DD000B2FBF7F2002128461A4B98471022002147
:101DE0002846194B984700212846184B9847184B0E
:101DF0004FF40002C3F88020BFF34F8FBFF36F8F03
:101E0000C3F88021002183F817131A60114B1B6857
:101E10004BB1104A012352F8041F29B101330C2B96
:101E2000F9D105B0F0BD00230A4A42F82360F8E773
:101E3000BD0A400000A3E111070C400000C00040B3
:101E4000CD0B4000EF0B4000F70B4000E70B4000CC
:101E500000E100E03C16402070B500210848094B25
:101E60009847094C04F13005084E01E0AC4205D01A
:101E700054F8040B0028F9D0B047F7E770BD00BF55
:101E800000C00040FF0B40003C164020791D400080
:101E900070B50F4E0F4D761BB61018BF002405D03D
:101EA000013455F8043B9847A642F9D10A4E0B4D30
:101EB000761B04F0CDFDB61018BF002406D0013407
:101EC00055F8043B9847A642F9D170BD70BD00BFDC
:101ED0005C6A40005C6A4000646A40005C6A4000E2
:101EE0000FB400B5074983B004AB086853F8042B5E
:101EF0008168019300F014FA03B05DF804EB04B0BC
:101F0000704700BF080040200FB400B5074983B0F8
:101F100004AB086853F8042B4168019301F08AF878
:101F200003B05DF804EB04B0704700BF0800402028
:101F3000844641EA000313F003036DD1403A41D3D4
:101F400051F8043B40F8043B51F8043B40F8043B93
:101F500051F8043B40F8043B51F8043B40F8043B83
:101F600051F8043B40F8043B51F8043B40F8043B73
:101F700051F8043B40F8043B51F8043B40F8043B63
:101F800051F8043B40F8043B51F8043B40F8043B53
:101F900051F8043B40F8043B51F8043B40F8043B43
:101FA00051F8043B40F8043B51F8043B40F8043B33
:101FB00051F8043B40F8043B51F8043B40F8043B23
:101FC000403ABDD2303211D351F8043B40F8043BC3
:101FD00051F8043B40F8043B51F8043B40F8043B03
:101FE00051F8043B40F8043B103AEDD20C3205D3D3
:101FF00051F8043B40F8043B043AF9D2043208D0CB
:10200000D2071CBF11F8013B00F8013B01D30B883C
:1020100003806046704700BF082A13D38B078DD01A
:1020200010F003038AD0C3F10403D21ADB071CBFEC
:1020300011F8013B00F8013B80D331F8023B20F856
:10204000023B7BE7043AD9D3013A11F8013B00F88F
:10205000013BF9D20B7803704B7843708B78837017
:102060006046704770B4860746D0541E002A41D09F
:10207000CAB2034602E014F1FF343BD303F8012B4C
:102080009D07F8D1032C2ED9CDB245EA05250F2C9A
:1020900045EA054519D903F110022646103E0F2ED8
:1020A00042F8105C42F80C5C42F8085C42F8045CB0
:1020B00002F11002F2D8A4F1100222F00F0204F093
:1020C0000F041032032C13440DD91E462246043A45
:1020D000032A46F8045BFAD8221F22F003020432D6
:1020E000134404F003042CB1C9B21C4403F8011BCF
:1020F0009C42FBD170BC704714460346C2E700BF48
:1021000000290CBF022200224FF4806300F000B8C7
:102110002DE9F043614C256883B004460F46904694
:102120001E4615B1AB6B002B64D0B8F1020F06D080
:10213000B8F1010F00F29F80002EC0F29C80636E08
:10214000D80734D52146284601F092FD216B41B1D4
:1021500004F14003994202D0284601F0FBFF00231E
:102160002363B4F90C300022A26162601A063AD4EB
:1021700023F44A6323F00303B8F1020FA3811DD0B7
:1021800001AB6A462146284602F0C8FAA3891843E3
:10219000A081002E32D1009E304602F037FB074668
:1021A00000286BD0A38943F08003A38128E0A38992
:1021B0009905C7D4A06D02F0ADFAC3E70025616EA2
:1021C000002604F1430243F002030120A660CE077B
:1021D000A38122602261606101D498053ED5284622
:1021E00003B0BDE8F0832169284601F0B3FFB4F9DC
:1021F0000C30BDE7284601F0A5FD96E7002FCBD0B7
:10220000AB6B002B33D0009BB4F90C2027609E42AF
:102210001CBF42F40062A281B8F1010F04BF42F07A
:102220000102A28192B212F00803276166610ED00A
:10223000D1071AD5656E7642002315F00105A66117
:10224000A36009D00025284603B0BDE8F083A36051
:10225000656E15F00105F5D19305C0D4A06D02F0AF
:102260005BFA284603B0BDE8F083A660F0E7284695
:1022700001F068FDC7E74FF0FF35B0E7DDF80090EB
:10228000B14504D0484602F0C1FA074620B9B4F976
:102290000C304FF0FF3592E74E4683E708004020B0
:1022A0002DE9F84F4B6E9C0493462FD59368126826
:1022B00053B30E46074602F1080919E920045FEA04
:1022C0009A0817D0043D002401E0A04510D0324602
:1022D00055F8041F384601F0D7FD431C04F10104F2
:1022E000F3D10023CBF80830CBF80430BDE8F88FE9
:1022F000DBF808302AF0030AA3EB0A03CBF8083016
:1023000009F10809002BD8D10020EAE702F008F80B
:102310000023CBF80830CBF80430BDE8F88F00BFBD
:102320002DE9F04FADB01D468B46904607930690C1
:1023300018B1836B002B00F0F380DBF86430BBF93D
:102340000C00DF0781B202D48E0540F1FC808C04C2
:102350000AD4DBF8643040F4005123F40053ABF8A6
:102360000C10CBF8643089B2080740F1B380DBF879
:102370001030002B00F0AE8001F01A030A2B00F0A1
:10238000B58000230DF170090B9311931093039303
:10239000CDF83C90CA46CDF810B098F800304446CD
:1023A000FBB1252B02D11CE0252B03D014F8013FF3
:1023B000002BF9D1A4EB08059DB1109B119ACAF826
:1023C000008001332A44072BCAF80450119210935D
:1023D0007ADD002A40F0B084039B10922B44CA4659
:1023E00003932378002B00F0E08300204FF00003DC
:1023F0008DF8373004F10108627805460646034639
:102400004FF0FF3408F10108A2F12001582900F231
:10241000DE82DFE811F02102DC02DC022902DC02AC
:10242000DC02DC02DC02DC02DC0289029502DC0256
:10243000A200BD02DC029F01A401A401A401A40129
:10244000A401A401A401A401A401DC02DC02DC02B9
:10245000DC02DC02DC02DC02DC02DC02DC02B201B7
:10246000DC02DC02DC02DC02DC02DC02DC02DC027C
:10247000DC02DC029701DC02DC02DC02DC02DC02B2
:102480009B01DC02DC025302DC02DC02DC02DC0227
:10249000DC02DC02DC02DC02DC02DC025A021B028F
:1024A000DC02DC02DC026E021B02DC02DC027302D4
:1024B000DC02F50182010902D702DC029A02DC0289
:1024C000A700DC02DC022E020AF1080A039B2B445F
:1024D000039386E75946069801F0B6FA18BBBBF895
:1024E0000C1001F01A030A2B7FF44BAFBBF90E302E
:1024F000002BFFF646AFDBF86430DB0705D48F0511
:1025000003D4DBF8580002F007F92B46424659463F
:10251000069800F04DFD039003982DB0BDE8F08FB4
:1025200001F010FC09E7DBF86430D90704D4BBF8EC
:102530000C309A0540F1AA844FF0FF3303930398BF
:102540002DB0BDE8F08FDBF8580002F0E3F8BBF9DE
:102550000C0081B2FBE67642079243F0040398F840
:1025600000204FE708969E0600F150840799DD068B
:102570000A4600F1EF83580640F1EC830E880431DF
:102580000027012207914FF000018DF83710002538
:10259000611C00F0168123F08001029156EA0701C8
:1025A00040F01481002C40F05C83002A40F0B78397
:1025B00013F00103059300F057840DF1B00B3023A5
:1025C0000BF8413D059BA342B8BF234601930DB1D3
:1025D00001330193029B13F00203099302D0019B84
:1025E00002330193029B13F084030A9340F0178295
:1025F000089B019A9D1A002D40F31182102D40F383
:102600009084109B119AC44ED6461027A2461946B4
:10261000069C07E001F1020C0EF1080E0146103D88
:10262000102D11DD481C1032072811928EE8C000D1
:102630001090EFDD002A40F0E481103D102D11468E
:102640004FF0010CCE46EDDC54466146F2462A447A
:1026500007291192CAF80060CAF80450109100F3DB
:10266000EC829DF837500AF1080A481C002D40F012
:10267000DE81099B002B00F0F88102320EA90223B3
:102680000728119210908AE80A0040F3EA81002A94
:1026900040F08C830A9B802B4FF001001146CA4604
:1026A00040F0E781089B019D5E1B002E40F3E18115
:1026B000102E9A4D40F35084D4461027A246069C13
:1026C00007E001F1020E0CF1080C0146103E102E3D
:1026D00011DD481C1032072811928CE8A0001090E0
:1026E000EFDD002A40F09D82103E102E4FF0010ECB
:1026F0001146CC46EDDC5446E2463244BEF1070FAB
:1027000011928AE86000CDF840E000F369830AF195
:10271000080A0EF101007146ABE1089613F02002A1
:1027200040F08C8313F0100140F01A8313F0400244
:1027300000F0168307980A4601460431068807917F
:10274000002720E7089643F01003E7E7089643F0D8
:10275000100308E743F0800398F8002052E6A2F146
:102760003001002618F8012B06EB860601EB460621
:10277000A2F130010929F5D946E60896002840F073
:10278000088443F010039E0600F14C83DD0600F13F
:10279000F382580640F1F082079DB5F900602A46A1
:1027A000F7170432304639460792002871F10002CB
:1027B000C0F25D83611C9DF837504FF001027FF439
:1027C000EAAE56EA070100F04D820293012A00F0BA
:1027D0008C82022A40F05C820B98CB46330906F0CB
:1027E0000F0143EA07733A091E461746435C0BF88C
:1027F000013D56EA0703F1D1A9EB0B030593E1E68E
:10280000002840F0C083990600F16783DA0600F1E2
:10281000F1805B0640F1EE80079A1368043207925C
:10282000BDF80C201A80B8E507983D4A08960B922F
:1028300006687822302104308DF8392043F00203F5
:10284000079000278DF8381002229CE60896002891
:1028500099D08DF8375096E798F80020002D7FF436
:10286000D1AD01202025CDE543F0010398F80020EB
:10287000C8E50896002840F0938329490B919F06EC
:1028800000F1E8820798DE06014600F170825D06DD
:1028900040F16D820431068807910027D80740F186
:1028A000228256EA070100F01E8230218DF839207D
:1028B00043F002038DF83810022264E608960028DF
:1028C00040F06B8317490B91D9E7079908960A687E
:1028D0008DF848204FF000000A468DF8370004328A
:1028E00001200190079205900DF1480B02930024FE
:1028F00070E643F0400398F8002083E598F8002044
:102900006C2A03BF98F8012043F0200308F1010866
:1029100043F0100376E500BFF86840000869400006
:10292000DC684000C868400007990E680A46002E1F
:1029300002F10402FFF60FAE079298F8002061E55D
:1029400098F8002001202B255CE507990896D1F81E
:1029500000B04FF000028DF837200E1DBBF1000FC4
:1029600000F0E582671C00F0C48222460021584630
:10297000019302F04DFA019B002800F0E582A0EBE4
:102980000B020592079602939DF83750002419E632
:1029900098F800202A2A08F1010700F0E982A2F144
:1029A00030010929B8464FF000043FF62DAD18F864
:1029B000012B04EB840401EB4404A2F1300109294A
:1029C000F5D921E543F0200398F800201AE5089690
:1029D000002840F0DB82002A00F0E78001218DF81A
:1029E00048204FF0000201918DF8372005910DF13C
:1029F000480B7BE7079A136804320792039A1A6020
:102A0000CBE40FAA04992046FFF74AFC002840F0C7
:102A100039811099119A01F1010CCE46FFE5109908
:102A2000119A481C9DF83750002D3FF422AE013218
:102A30000DF137050121072811921090CAF80050B6
:102A4000CAF8041040F30881002A40F0BC81099BB9
:102A5000002B3FF41FAE0EAB022208461C931D92C2
:102A6000CA4601460AF1080A01300A9B802B3FF44E
:102A700019AE059BE41A002C2EDD102CB34D1EDD83
:102A8000D6461026069FDDF810A006E0881C0EF141
:102A9000080E1946103C102C10DD4B1C1032072B71
:102AA00011928EE860001093F0DD002A65D1103C91
:102AB000102C4FF001001146CE46EEDCF2462244C7
:102AC00007281192CAF80050CAF80440109000F389
:102AD00085800AF1080A01300599CAF800B00A4455
:102AE00007281192CAF80410109040F38280002A3F
:102AF00040F01881029B1092580735D5089B019928
:102B00005C1A002C40F3E780CA46102C40F3188270
:102B100010998F4E069FDDF810B0102506E0881C36
:102B20000AF1080A1946103C102C11DD4B1C10321A
:102B3000072B1192CAF80060CAF804501093EEDD1A
:102B400042BB103C102C4FF001001146CA46EDDC90
:102B5000224407281192CAF80060CAF80440109075
:102B600051DD002A40F09B81039B089A01998A421B
:102B7000ACBF9B185B1803934EE00FAA5146384632
:102B8000FFF78EFB002840F03F811099119A481CF6
:102B9000CE467FE70FAA59463846FFF781FB60B95A
:102BA0001099119A481CCA46BDE7119BDDF810B078
:102BB000002B40F0D48100231093DBF8643013F035
:102BC000010FBBF80C3002D19A0540F1DE805B06A4
:102BD0003FF5B2AC03982DB0BDE8F08F002A40F06D
:102BE0000681059A1D9201231192CDF870B01093C1
:102BF000CA460AF1080A029B590704D5089B0199A5
:102C00005C1A002C81DC039B089901988142ACBFBF
:102C10005B181B18039372BB00231093CA46FFF77F
:102C2000BCBB0FAA04992046FFF73AFB50BB109992
:102C3000119A01F1010ECC4648E5002A40F040818E
:102C40009DF83710002900F01B8101220DF137019A
:102C500010461D921C91CA4601460AF1080A01302D
:102C600007E5029B012A00F09880022A0DD1029309
:102C700000260027B0E50FAA04990698FFF710FB7D
:102C80000028C9D0DDF810B097E70293002600278E
:102C9000494600E05946F20842EA4772F80806F051
:102CA000070307461646303356EA070201F8013C8F
:102CB00001F1FF3BEED1029AD6077FF59DAD302B97
:102CC0003FF49AAD023930230BF8013CA9EB010324
:102CD00005938B4676E4039B089A8A42ACBF9B1807
:102CE0005B18039398E702224DE4002F08BF0A2ED9
:102CF00052D3CB46304639460A22002303F060FA0D
:102D000030320BF8012D3046394600230A2203F0F9
:102D100057FA06460F4656EA0703EBD16CE50594D1
:102D2000CB464FE40FAA04990698FFF7B9FA00289A
:102D3000A8D1119ACA465EE70FAA04990698FFF730
:102D4000AFFA00289ED1CA46FFF7C0BB0869400011
:102D5000F86840000431166807910122002712E448
:102D60000798014604310668079100270BE40E68B6
:102D700004310791002791E507990E680A46F71775
:102D800004320792304639460FE5DBF8580001F06F
:102D9000C3FCBBF80C301AE7029B02930DF1B00B99
:102DA000303601230BF8416D05930BE40FAA04990B
:102DB0000698FFF775FA00287FF464AF1099119A0E
:102DC000481CCA4651E60FAA04990698FFF768FA0C
:102DD00000287FF457AF1099119A481CCA4648E45E
:102DE000002A40F0918001201146CA4641E60FAA10
:102DF00004990698FFF754FA00287FF443AF10981F
:102E0000119A0130CA4667E6D346D6E6079E0736D2
:102E100026F0070202F10801D2E9006707910122BA
:102E2000FFF7B1BB079E073626F00706D6E900017B
:102E300006F10802079206460F46B6E4079E0736DB
:102E400026F0070202F10801D2E90067079100228B
:102E5000FFF799BB079E073626F0070101F108002E
:102E60000790D1E9006719E5CB46FFF7ABBB2D25ED
:102E7000764267EB47078DF837500122FFF788BB92
:102E8000099BB3B911460120CA46F2E5DBF85800A8
:102E900001F042FC4FF0FF330393FFF750BB0FAA42
:102EA00004990698FFF7FCF900287FF4EBAE119A1D
:102EB000A9E60EAB02221C931D920120CA46D0E562
:102EC0000FAA04990698FFF7EBF900287FF4DAAE11
:102ED0001099119A481CCA46A4E5079A03991368E9
:102EE000CD170846043229460792C3E90001FFF7CF
:102EF00054BA58460796029302F022FB002405902C
:102F00009DF83750FFF75EBB0FAA04990698FFF7AC
:102F1000C7F900287FF4B6AE1099119A481CCA462A
:102F2000A7E51099119A204E0131FFF790BB062CAE
:102F300028BF0624059407960194DFF870B0D5E405
:102F40001098194E013003E605949DF83750079606
:102F500002930446FFF736BB8646FFF7CEBB0698C2
:102F60000FAA5946FFF79CF900283FF424AE24E647
:102F7000079998F801200C68043144EAE474B846D3
:102F80000791FFF73FBA8DF837503CE48DF8375082
:102F900021E58DF83750FFF7F4BB8DF8375091E4F9
:102FA0008DF8375069E400BFF8684000F0684000D1
:102FB0002DE9F0410C46ADF58D6D8989666EE58988
:102FC000199621F002010646E069ADF80C1017468B
:102FD0004FF48061626AADF80E5098461AAD002336
:102FE000079016A809920693009504950291059101
:102FF00001F08CFB43463A4669463046FFF790F9AC
:10300000051E07DB3046694600F032FE002818BF77
:103010004FF0FF35BDF80C305B0603D5A38943F0B4
:103020004003A381169801F073FB28460DF58D6DC2
:10303000BDE8F0812DE9F04F8B46D9B0496E06937B
:10304000BBF90C3011F0010F074699B202D18C0583
:1030500040F1E583880409D4DBF8641043F400539D
:1030600021F40051ABF80C30CBF86410144626461E
:103070000023079304939A46059316F8013B0B939C
:1030800063B301F035FB0B9B1844457815F0080538
:1030900033D0DBF8042012E001F02AFBDBF800302B
:1030A0001A78104401334278110710D5DBF8042058
:1030B000CBF80030013A0AF1010ACBF80420002ACB
:1030C000EADC5946384602F013F90028E4D03446C9
:1030D000264616F8013B0B93002BD2D1DBF8643067
:1030E000DA0700F1A781BBF80C309B0500F1A28143
:1030F000DBF8580001F010FB9CE1252B40F08480A8
:1031000094F801802C46731CB8F1780F00F2968178
:10311000DFE818F084019401940194019401940172
:1031200094019401940194019401940194019401F7
:1031300094019401940194019401940194019401E7
:1031400094019401940194019401940194019401D7
:1031500094019401940194019401940194017900E3
:1031600094019401940194017E01940194019401CD
:103170009401940175017501750175017501750161
:103180007501750175017501940194019401940113
:1031900094019401940194019401940171019401AA
:1031A0009401940194019401940194016B019401A0
:1031B00094013101940194019401940194019401CA
:1031C000940194012801940194011F019401940138
:1031D000940194019401940194011A01080194014D
:1031E00094019401020193009401940161019401FE
:1031F0004A014801440194019401410194013A01BA
:103200009401940128011E46DBF80430002B40F3A2
:103210009283DBF8003016F8012C197891427FF484
:103220005DAFDBF804200133013ACBF800300AF13E
:10323000010ACBF8042034464AE70393B24B0793C4
:10324000002304930326DBF80430002B75DD6906A8
:1032500033D5022E00F00D82032E00F05981012E8D
:1032600000F02081002C08BF012415F0010340F07C
:103270005D82ED0640F10B831D4609E01344CBF857
:1032800000301544A41A02F033F8002840F0FB8205
:10329000DBF80420DBF80030A24259463846EDDB6B
:1032A000121B2344CBF804202544CBF80030039EA6
:1032B000AA4434460CE7CBF8003001F019FADBF8E9
:1032C00000301A781044013342781207C1D5DBF878
:1032D0000420013A002A0AF1010ACBF80420EADCB2
:1032E0005946384602F004F80028E6D0DBF864308E
:1032F000DC0704D4BBF80C30980540F1B082059B84
:10330000002B00F09480BBF80C30590600F18F8040
:10331000059859B0BDE8F08F96F8018045F0040596
:103320001E46F0E60393784B07930A230493DBF8D9
:103330000430002B4FF0030689DC5946384601F073
:10334000D7FF002883D0D1E7039345F0400500263E
:1033500079E7194618A802F067F845F04005039090
:10336000012670E7039345F40075684B079310231B
:103370000493032667E7039345F00105634B079326
:103380000823049303265EE70393604B07930A2305
:103390000493032657E70393022654E7039345F467
:1033A0000875E2E70393E9E7EA06039377D46B072E
:1033B00000F1EC82EE0700F1D882AD0740F1D58232
:1033C000069A039E13685046C11704320692C3E959
:1033D000000134467CE696F80180B8F16C0F00F0ED
:1033E000B28245F001051E468DE696F8018045F053
:1033F00002051E4687E6039345F0010593E704EBBB
:10340000840408EB4404303C96F801801E467AE6BA
:1034100096F8018045F010051E4674E6DBF864302E
:10342000DC0704D4BBF80C30980540F193824FF0D0
:10343000FF330593059859B0BDE8F08F039301F071
:1034400057F94044437803F00303012B7FF46BAF3B
:1034500045F0010567E70CAB1846082200210893E8
:10346000FEF700FE15F01003099300F0EB810DF15B
:103470002C0900260DF1380801F03AF9DBF800308C
:103480001B7803445B781A0702D4002C40F0898231
:10349000099B23B9C9F80030059B01330593039EAE
:1034A000344615E6002C08BF4FF0FF34E80640F123
:1034B0000B81DBF8002000250DF16008137818F867
:1034C00003300132DBB1DBF80430CBF800200135EA
:1034D000013BAC42CBF804303FF4E9AE002BEDDC0D
:1034E0005946384601F004FF00287FF4E0AEDBF8CF
:1034F0000020137818F803300132002BE3D1002D9F
:103500007FF4D5AEEAE500BF45574000715A400050
:10351000631E262B8CBFA4F1270200224FF0000966
:1035200011460EAE4B46B946049F524688BF27242B
:1035300045F45865B0468A46DBF8000090F800E094
:10354000AEF12B014D2942D8DFE801F08E418E41CA
:103550004169636363636363635D5D41414141410D
:1035600041415858585858584141414141414141C1
:103570004141414141414141412741414141414155
:1035800041415858585858584141414141414141A1
:103590004141414141414141412705F4C061B1F5FB
:1035A000007F14D125F4007545F4A0651027DBF8E1
:1035B000041088F800E00139002908F10108CBF86F
:1035C000041046DD0130CBF80000013CB4D1E90520
:1035D000049792464F46994605D5B04500F2A28120
:1035E000B0453FF47BAD15F0100400F0E580A8EB8A
:1035F0000606B144039ECA44344669E50A2FE6DD57
:1036000025F43865D3E7AC4931F91770082FF7DC9A
:10361000DDE7A94925F4386531F91770C7E72905B1
:10362000C5D517B945F400750827690500F1EB8089
:1036300025F46075BAF1000F02D00AF1FF3A0134A7
:10364000DBF804100139002903F10103CBF8041061
:10365000B8DC594648460893049201F049FE049AA2
:10366000089B0028B1D0B2E72906B0D525F0800527
:103670009DE7002C08BF4FF0FF3415F001067FF4E2
:10368000EAAEEB0640F11C8101F032F8DBF80030C5
:103690001A78104401334278150711D4DBF804205E
:1036A000CBF800300136013AB442CBF8042007D001
:1036B000002AE9DC5946384601F01AFE0028E3D01A
:1036C000B244039E344603E5069A1568161DA946C2
:1036D0000DF16008DBF800301A7818F80220591C48
:1036E000C2B1DBF80420CBF80010013ACBF804207B
:1036F0001B7809F8013B013C0CD0DBF80430002BAF
:10370000E8DC5946384601F0F3FD0028E2D04D458B
:103710003FF4ECADB9EB05053FF4E0AC059A069635
:1037200000230132059289F80030C0E50CAB184641
:10373000082200210893FEF795FC15F01003099369
:1037400077D04FF00009002C3FF4A9AE00250DF111
:10375000380800F0BBFFA8423FF4C8AD9BE80C005E
:1037600012F8010BCBF80020013B089A00926E1C66
:10377000CBF8043008F8050033464246494638463F
:1037800001F0FCFA431C3FF4B1AD00286CD1099B59
:10379000002B6DD1C9F80030B244013C09F1040995
:1037A0000025DBF80430002B30DD002CD1D1099B43
:1037B000002B7FF474AE6FE6224688F80040049B2D
:1037C000079C31463846A047AA0642D46B0700F151
:1037D000D78015F001023CD1AD073AD5079B1946B9
:1037E000364B99423846049B314600F01E8102F068
:1037F00089F8069A1368C3E9000104320692059B12
:1038000001330593F3E625F4B065D0E65946384612
:1038100001F06EFD0028C8D0002DC8D066E5DBF8A9
:103820005800039200F076FFBBF90C30039A99B26E
:1038300010E4069A13460433D2F800900693002C45
:1038400084D129E6069A13460433D2F800900693F1
:103850000FE6069A1368043206921860CFE7DBF889
:10386000580000F059FF4AE5023005D1354698E787
:10387000B244013C054694E7099BB244013C002B4D
:103880008CD000258DE7002D7FF411AD2EE5069D2F
:1038900023462968CDF800B00122384600F028FB05
:1038A0002E1D00283FF422AD059B0696039E013392
:1038B0008244059334460BE418694000715A400075
:1038C000069A166802F10408354600F011FFDBF88D
:1038D000002013781844511C4378180715D4DBF8DE
:1038E0000430CBF80010013BCBF80430137805F816
:1038F000013B013C09D0DBF80430002BE5DC5946E4
:10390000384601F0F5FC0028DFD0AE1B059ACDF853
:103910001880B244039E0023013205922B70344676
:10392000FFF7D6BB18F8011C5A46384602F0DEF9FC
:1039300008F1FF3854E65946384601F0D9FC002812
:103940003FF467ACD2E496F8028045F002050236F7
:10395000FFF7D9BBDBF8580000F0DEFE4FF0FF3375
:103960000593059859B0BDE8F08F069A039E136839
:10397000C3F800A01346043306933446FFF7A8BBF0
:10398000069A136804320692188038E7069A039E56
:103990001368A3F800A01346043306933446FFF7D8
:1039A00097BB00F093FE86423FF4A0AC9BE80C006E
:1039B00012F8010BCBF80020013B089A0092751C0D
:1039C000CBF80430494608F806002B4642463846F4
:1039D00001F0D4F9411C3FF489AC98B1023008BF22
:1039E0002E462ED1DBF80430002B3FF745AD59466B
:1039F000384601F07DFC00283FF43EAD002E7FF4F8
:103A000075AC45E5C9F8000000F052FE064678B1F5
:103A1000002D3FF43DAD454415F8011D5A4638468A
:103A200002F064F94545F7D132E502F011F9E0E61C
:103A3000099BAA44013C002BD4D109F104091E467C
:103A4000D0E7D9F80000DFE738B5304B1B680546F2
:103A50000C4613B19A6B002A38D0B4F90C2093B2FB
:103A600018070CD52069A8B113F001021ED06369B4
:103A700000225B42A361A260F0B1002038BDD906EC
:103A80003CD5580726D4206942F00803A3819BB295
:103A90000028E9D103F42072B2F5007FE4D0284673
:103AA000214600F069FEA3892069DDE7990758BF28
:103AB0006269A2600028E0D1B4F90C301A06DDD5A5
:103AC00043F04003A3814FF0FF3038BD184600F0AB
:103AD00039F9C2E7216B51B104F14003994204D096
:103AE000284600F037FBB4F90C20002323630023A1
:103AF0002069636022F024022060C5E742F04002A2
:103B000009232B604FF0FF30A28138BD0800402010
:103B1000024B13B1024800F005B8704700000000E6
:103B2000B53D4000002301461A46184602F020BA6F
:103B3000B1F90C309AB22DE9F0410D4611078046DB
:103B40003AD46A6843F40063002AAB816FDDAC6A43
:103B5000002C49D000229BB2D8F80060C8F80020A1
:103B600013F4805267D02A6D5F0705D569682B6B07
:103B7000521A0BB1EB6BD21A0023E9694046A047F9
:103B8000441C3CD0B5F90C302A692A6023F4006348
:103B90000022AB81DB046A6047D4296BC8F800605F
:103BA00011B305F14003994202D0404600F0D2FA29
:103BB00000202863BDE8F0812E69AEB12C682E602C
:103BC00091070CBF6B690023A41BAB600AE023467E
:103BD00032466F6AE9694046B8470028A4EB000402
:103BE000064404DD002CF2DC0020BDE8F081AB8946
:103BF00043F04003AB814FF0FF30BDE8F081D8F8CF
:103C000000401D2CF3D8194BE340DB4313F00103B4
:103C1000EDD1B5F90C206B6022F400632969AB810A
:103C2000DA042960B9D5002CB7D12865B5E7EA6B6D
:103C3000002A8CDCD8E70123E9694046A047431CF1
:103C4000024602D0AB89AC6A8EE7D8F80030002B70
:103C5000F8D01D2B01D0162B02D1C8F80060C3E7A5
:103C6000AB8943F04003AB81BDE8F0810100402007
:103C700038B50D46044608B1836BBBB1B5F90C00ED
:103C800088B16B6EDB0701D4810517D52046294624
:103C9000FFF74EFF6B6EDA07044602D4AB899B0533
:103CA00007D5204638BD0446204638BD00F04AF806
:103CB000E4E7A86D00F030FD204638BDA86D00F0A7
:103CC00029FDE3E720B1054B01461868FFF7D0BF97
:103CD000034B0449186800F0C1BC00BF0800402035
:103CE000C4684000713C4000014900F0B7BC00BF0F
:103CF0005960400010B5002304468181C2810360F1
:103D0000436083604366036143618361194608220F
:103D10005C30FEF7A7F907480749084A084B2062BC
:103D2000E4616162A262E36204F15800BDE8104000
:103D300000F0ECBC9D544000C1544000FD544000D4
:103D40001D55400010B50446124800F0E3FCA26B7C
:103D5000D2B904F53B731048C4F8E8320321C4F823
:103D6000E022E063C4F8E41260680421FFF7C2FFB8
:103D700001220921A068FFF7BDFF02221221E0689D
:103D8000FFF7B8FF0123A3630248BDE8104000F02D
:103D9000C3BC00BF78164020E93C4000014800F059
:103DA000B9BC00BF8C164020014800F0B5BC00BF74
:103DB0008C16402038B50A4C0A4D641BA4100AD05A
:103DC00004F18043013B05EB8305013C55F80439C0
:103DD0009847002CF9D1BDE8384002F043BE00BF3F
:103DE000746A4000706A40002DE9F04782B0804656
:103DF0008946144600F06AFC012836D04A4604F190
:103E00005C0301A9404602F065F8421C064625D035
:103E1000A8B39DF804E000250DF1040A09E0236829
:103E20005A1C226083F800E00135B54227D215F80C
:103E30000AE0A368013B002BA360F0DAA769BB424C
:103E400071462246404602DBBEF10A0FE7D101F07F
:103E5000E9FF431CE8D102B0BDE8F087A38943F035
:103E60004003A38102B0BDE8F08709F1FF33FE2BC8
:103E7000C4D85FFA89FE06468DF804E0CBE74846D1
:103E800002B0BDE8F08700BF30B5536E13F0010FEC
:103E9000B2F90C30144683B005469AB201D19005B0
:103EA0001CD5900406D4626E43F4005342F40052D1
:103EB000A381626628462246FFF796FF636EDA0703
:103EC000054602D4A3899B0502D5284603B030BD20
:103ED000A06D00F021FC284603B030BDA06D01911B
:103EE00000F018FCB4F90C3001999AB2D9E700BF80
:103EF0002DE9F04F85B002FB03F70E9C002F50D048
:103F000006460D460193029218B1836B002B00F018
:103F1000BE80636E13F0010FB4F90C309AB202D177
:103F2000900540F1B780910407D4626E43F40053CA
:103F300022F40051A3819AB26166D4F80490B9F1D9
:103F4000000F49DB92074B464CD4B046BA464E466A
:103F50000EE02168FDF7ECFF23683344236021461F
:103F600040463544AAEB060A01F0C2F910BB666868
:103F7000B24532462846ECD852462168FDF7D8FFB4
:103F800062682368A2EB0A02534462602360636E96
:103F9000DA070AD4A3899B0507D4A06D00F0BCFB07
:103FA000019F384605B0BDE8F08F019F384605B047
:103FB000BDE8F08F636ED80705D4A389990502D4B4
:103FC000A06D00F0A9FB029BA7EB0A07B7FBF3F774
:103FD000384605B0BDE8F08F002192070B466160BE
:103FE0008946B2D5BB4228BF3B461A462168039397
:103FF0002846FDF79DFF94E80500039B216B00EB2D
:104000000309D21AC4F800906260A7EB03080029E4
:104010004BD0B8F1000FBAD004F14000814205D076
:10402000304600F097F8D4F80090039B00212163FC
:104030003A461D4433464F464646D4F810B0D4F8AD
:1040400014A09846914601E0002EA0D0256166613B
:1040500025602146404601F04BF96368C4F810B072
:10406000F61A1D440023C4F814A0276063600028DA
:10407000EAD0636EB046DE074F4602D4A3899D05A1
:104080000FD5A7EB0807029BB7FBF3F789E7FFF70C
:1040900059FE3EE7A06D00F03DFBB4F90C309AB23A
:1040A00041E7A06D00F038FBEBE7B8F1000FBFD19E
:1040B0006DE700BFF8B5244F0C46064600F05CFFE4
:1040C000BB685D68C4F57E610F3125F003052944A6
:1040D00021F47F6121F00F01A1F58054B4F5805FD8
:1040E00007DB0021304601F08DF9BB682B44984274
:1040F00004D0304600F046FF0020F8BD6142304653
:1041000001F080F901300DD0104BBA6819682D1BF1
:1041100045F001053046091B5560196000F032FF7B
:104120000120F8BD0021304601F06CF9BA68831A0D
:104130000F2BDEDD064C0549246843F00103001B0C
:1041400053600860D5E700BFA8054020FC1540205B
:10415000B0094020002944D02DE9F0410D468046A9
:1041600000F00AFF55F8047C694927F00103A5F126
:104170000804E2188E685068B24220F003005ED056
:10418000FE0750600BD455F8087CE41B01F1080EC3
:10419000A56875453B446DD0E768EF60BD601518B4
:1041A0006D68ED073ED543F001026260E350B3F560
:1041B000007F17D2DB08581C9A104D6851F83070F8
:1041C000A7600123934001EBC0022B43083AE26051
:1041D0004B6041F83040FC604046BDE8F04100F0E3
:1041E000D1BE70475A0A042A52D89A0902F13907F7
:1041F000FF0002F13805C819CA59083890424FD05B
:10420000516821F003018B4232D292689042F7D17B
:10421000C368A060E3609C60C4604046BDE8F041B4
:1042200000F0B0BE95683B4FBD42034440D0D0681B
:10423000E86043F0010285606260E350B7E7FF0782
:10424000034407D455F8082CA41A1344A068E26864
:10425000C2609060304A126843F00100934260608F
:104260008C60B9D32D4B40461968FFF723FFB3E7A5
:104270001046CDE711184968C90744D49168D2683F
:10428000CA60034443F0010091606060E350A3E71B
:10429000142A16D802F15C07FF0002F15B05AAE7B9
:1042A000AA1001234D6893402B434B600346B0E7AF
:1042B00043F001024C610C61E560A5606260E3506F
:1042C0008AE7542A06D81A0B02F16F07FF0002F1A1
:1042D0006E0590E7B2F5AA7F06D8DA0B02F17807EF
:1042E000FF0002F1770586E740F25450824206D87B
:1042F0009A0C02F17D07FF0002F17C057BE74FF489
:104300007E777E2577E743F001016160136063E704
:10431000A8054020B0054020B40940202C164020BC
:104320009368002B73D02DE9F04F8B8983B00C4636
:1043300019070090164626D5226922B313F0020011
:1043400035682CD04FF00009B04FC846B246B8458A
:1043500043464A4628BF3B460098B8F1000F50D06C
:10436000E169666AB047002858DDDAF808301B1AA0
:104370008144A8EB0008CAF80830002BE7D10020E0
:1043800003B0BDE8F08F21460098FFF75DFB0028E1
:1043900040F03381A389356813F00200D2D113F0C5
:1043A000010945D14F46019637B39A05D4F80880E4
:1043B00040F183804745C346C0F0AB8013F4906F53
:1043C00040F0AC802068BA465A46494600F070FD7D
:1043D000A2682368A2EB08025B44A2602360019AF2
:1043E0009368A3EB0A03D144A7EB0A079360002B61
:1043F000C5D0A389002FD8D1D5F800906F680835B3
:10440000D2E7D5F80090D5F8048008359FE7002062
:10441000704721460098FFF72BFC70B3B4F90C30BD
:1044200043F040034FF0FF30A38103B0BDE8F08FAD
:10443000814633464E46A8469A464D464EB380B313
:10444000206823696269B145CB4628BFB3469842CC
:104450005F4604D9A36813449B4500F3A6809345A7
:104460004BDB1346676AE16900982A46B847071E86
:10447000D4DDB9EB0709CCD00120DAF80830DB1B1A
:104480003D44F61BCAF80830002B3FF478AF002EED
:10449000D5D108F1080313E9600098460833002ECF
:1044A000F9D032460A21284600F0B2FC002800F07C
:1044B000A1800130A0EB0509C2E72068236998427A
:1044C00002D863699F425DD2B84528BFB8464246CC
:1044D000494600F0EDFCA3682268A3EB08034244C0
:1044E000A36022600BB1C24679E721460098FFF72E
:1044F000BFFB002892D1C24671E75A46294600F018
:10450000D7FCA2682368A2EB0B025B44A260236085
:10451000AFE72068B846BA46BB4655E762692068EF
:10452000216902EB4208A0EB010A08EBD8780AF1F6
:1045300001004FEA680838444045424684BF80463F
:1045400042465B0544D51146009800F067F9834662
:10455000002855D052462169FDF7EAFCA38923F4CF
:10456000906343F08003A3810BEB0A00A8EB0A03DE
:10457000C4F810B0C4F814802060A360B846BA46EE
:10458000BB4621E76FF00041B94228BF39464A4691
:1045900091FBF3F10098666A03FB01F3E169B04710
:1045A000B0F1000A3FF71BAF38E71A4629460193DE
:1045B00000F07EFC2268019B00981A44226021468C
:1045C000FFF756FB019B00287FF428AF1F4650E7FA
:1045D000009800F0DDFC83460028C5D1009D2169CC
:1045E0002846FFF7B7FDB4F90C300C2223F0800306
:1045F0002A6015E706F1010922E74FF0FF30BFE618
:10460000009A0C231360B4F90C3009E700FCFF7F1B
:104610002DE9F04110F538771BD0884600267D68DB
:10462000BC68013D0FD4A389012B05F1FF3506D9E4
:10463000B4F90E300133204601D0C04706436B1C4D
:1046400004F16804EFD13F68002FE8D13046BDE89F
:10465000F0813E463046BDE8F08100BF2DE9F843C9
:1046600010F538771FD0884606464FF000097D6860
:10467000BC68013D11D4A389012B05F1FF3508D990
:10468000B4F90E3001332146304602D0C04749EA22
:1046900000096B1C04F16804EDD13F68002FE6D1DE
:1046A0004846BDE8F883B9464846BDE8F88300BFF0
:1046B000FF2801D90020704710B5044600F018F813
:1046C0002044407800F0080010BD00BF044B054AAC
:1046D0001B685B6B002B08BF134693F828017047DB
:1046E000080040203C044020D0F8EC00704700BF98
:1046F000044B054A1B685B6B002B08BF1346D3F8BD
:10470000EC007047080040203C044020704700BF88
:10471000704700BF704700BF704700BF70B50C46C0
:10472000B1F90E10002990B015461E4614DB01AAFF
:1047300001F0F4FC00280FDB029A02F47042A2F5AB
:104740000052B2FA82F252094FF480634FF40060D3
:1047500032602B6010B070BDA289002312F080007F
:10476000336004D0402218462A6010B070BD4FF468
:1047700080632B6010B070BD8A8992070B4606D506
:1047800001F1430201211A601A6159617047F0B5C5
:1047900083B001AB6A460C460646FFF7BFFF00999F
:1047A0000546304600F03AF8B4F90C30D8B1019A19
:1047B000154F0099F76343F08003A38120602061C7
:1047C00061611AB92B43A38103B0F0BD3046B4F93F
:1047D0000E1001F0B7FCA0B1A38923F0030343F04E
:1047E00001031BB2EEE79A05EED423F0030304F1B4
:1047F000430243F002030121A3812260226161612F
:10480000E2E7B4F90C30DDE7E93C4000024B014639
:10481000186800F003B800BF080040202DE9F04FF1
:1048200001F10B06162E83B0054640F29E8036F04D
:10483000070600F1BD80B14200F2BA8000F09CFB97
:10484000B6F5FC7FC0F09382730A00F0B880042BA9
:1048500000F27981B30903F1390003F1380EC30086
:10486000BF4F3B44A3F108015C68A14206D10CE0B4
:10487000002A80F2AA80E468A14206D0636823F08F
:1048800003039A1B0F2AF3DD70463C69DFF8E4E26C
:10489000744500F0AB81636823F003039A1B0F2A71
:1048A00000F39081002AC7F814E0C7F810E080F206
:1048B0009D80B3F5007F80F06181DB0803F1010C7E
:1048C00099107A6857F83C80C4F8088001238B401F
:1048D00007EBCC0113430839E1607B6047F83C40AB
:1048E000C8F80C408210012494409C4200F28B8056
:1048F0001C4206D120F0030064001C4200F10400B9
:10490000FAD007EBC009CC468046DCF80C309C4559
:1049100007D16DE1002A80F27B81DB689C4500F0C5
:104920006781596821F003018A1B0F2AF2DDD3F851
:104930000CC0D3F8088000939C19284646F0010665
:1049400042F001055E60C8F80CC0CCF808807C61BC
:104950003C61C4F80CE0C4F808E065605A5000F00F
:1049600011FB009B03F108041EE0102920D800F081
:1049700003FB102618230220794F3B44A3F10802C1
:104980005C68944200F03D816368E168A66823F0AA
:104990000303234428465A68F16042F001028E6006
:1049A0005A6000F0EFFA0834204603B0BDE8F08FFB
:1049B00000240C2320462B6003B0BDE8F08F40207C
:1049C0004FF400734FF03F0E4AE72344E1685A6802
:1049D000A66842F00102F16028468E605A6000F03D
:1049E000D1FA0834204603B0BDE8F08F23442846AE
:1049F0005A6842F001025A6000F0C4FA08342046B6
:104A000003B0BDE8F08FBC68636823F00308B045CD
:104A100004D3A8EB06030F2B00F38580DFF8589131
:104A2000504BD9F800201B680132334404EB080ACC
:104A300000F0558103F580530F3323F47F6B2BF087
:104A40000F0B5946284600F0DDFC411C024600F0E1
:104A5000FC80824500F2F780434B19685944196085
:104A600000F04D81D9F8000001301BBFA2EB0A0A0B
:104A70005144C9F80020196012F0070100F01581B7
:104A8000C1F10800C1F580510244083102EB0B0965
:104A9000C9F30B09A1EB0909494628460193009285
:104AA00000F0B0FC431C9DE80C0000F04381801A2C
:104AB000484440F001001968BA604944BC42506063
:104AC000196017D0B8F10F0F40F2FB806068A8F1B1
:104AD0000C0222F0070204EB020E00F001004FF07E
:104AE000050C10430F2A6060CEF804C0CEF808C051
:104AF00000F217811D4BBC681A68914288BF19608B
:104B00001B4B1A689142626888BF196022F0030249
:104B10009642A2EB060301D80F2B04DC284600F0D6
:104B200031FA002440E7A21943F0010346F00106E0
:104B300066602846BA60536000F024FA08342046C4
:104B400003B0BDE8F08F142B71D9542B00F2A38071
:104B5000330B03F16F0003F16E0EC30080E600BF5C
:104B6000A80540202C164020FC154020241640208B
:104B700028164020B0054020B00940205A0A042AD7
:104B80005BD9142A00F2AE8002F15C01C9005B32ED
:104B900007EB010C7958ACF1080C8C4500F08880CB
:104BA0004A6822F00302934273D289688C45F7D198
:104BB000DCF80C207B68E260C4F808C09460CCF894
:104BC0000C408FE6A11946F0010C42F00106C4F832
:104BD00004C0284679613961C1F80CE0C1F808E0E9
:104BE0004E60E25000F0CEF90834DDE67B6879E6ED
:104BF00008F1010818F0030F0CF1080C7FF485AEE2
:104C00002DE0DC68A34208BF02303FF43EAEBBE6B5
:104C100019441C464A68DB6854F8086F42F00102E8
:104C20004A602846F3609E6000F0ACF9BCE603F1F0
:104C30005C0003F15B0EC30012E69A0902F1390130
:104C4000C9003832A4E7BC4254D0BC68626822F084
:104C500003025DE759F80839994540F0868010F065
:104C6000030F00F1FF30F5D17B6823EA04037B607A
:104C700064009C423FF6C7AE002C3FF4C4AE1C4219
:104C800040467FF43EAE64001C4200F10400FAD0BE
:104C900037E68C468CE7B3F5AA7F15D8F30B03F102
:104CA000780003F1770EC300DAE54FF48051EDE6AA
:104CB0007B689210012101FA02F213437B60624685
:104CC00079E70123536029E740F25452934222D8F6
:104CD000B30C03F17D0003F17C0EC300C0E503F1CA
:104CE000100BAEE6542A29D81A0B02F16F01C90045
:104CF0006E324DE7204B196859441960B2E6CAF389
:104D00000B0000287FF4AEAE08EB0B03BA6843F04B
:104D100001035360EEE67F204FF47E734FF07E0E6A
:104D20009EE504F1080128460093FFF713FA009B63
:104D30001968DFE601204FF00009BCE6B2F5AA7F52
:104D400005D8DA0B02F17801C900773220E740F28A
:104D500054518A4205D89A0C02F17D01C9007C3277
:104D600016E74FF47E717E2212E77B6880E7F00839
:104D700006F1080300E600BFFC154020F0B583B043
:104D80000746089D92B1114C114E2468646B009542
:104D9000002C08BF3446D4F8E440A047431C03D19C
:104DA00000228A232A603B6003B0F0BD074B08490C
:104DB0001B685B6B0095002B08BF0B461446214611
:104DC000044AD3F8E4400123A047E7E70800402065
:104DD0003C0440202866400082B049B15AB16BB112
:104DE00013780B601278101C18BF012002B07047B6
:104DF00001A9002AF3D1104602B070476FF00100FC
:104E0000F4E700BF00000000000000000000000008
:104E100001F0FF01102A2BDB10F0070F08D010F86B
:104E2000013B013A8B422DD010F0070F42B3F6D16F
:104E3000F0B441EA012141EA014122F007047FF088
:104E400000070023F0E80256083C85EA010586EADF
:104E5000010685FA47F5A3FA87F586FA47F6A5FA1B
:104E600087F68EB9EED1F0BC01F0FF0102F0070227
:104E700032B110F8013B013A83EA010313B1F8D1D2
:104E80000020704701387047002D06BF35460338B3
:104E9000073815F0010F07D1013015F4807F02BFEC
:104EA000013015F4C03F0130F0BC0138704700BF3D
:104EB0008842F0B50DD98B1898420AD28418002A7E
:104EC00051D0224613F8014D02F8014D9942F9D113
:104ED000F0BD0F2A48D941EA00039B0746D100F1F3
:104EE000100401F11003154653F8106C44F8106CCF
:104EF00053F80C6C44F80C6C53F8086C44F8086CCC
:104F0000103D53F8046C44F8046C0F2D03F11003AA
:104F100004F11004E8D8A2F1100323F00F0302F00B
:104F20000F0E1033BEF1030F1944034421D91E1F85
:104F30000D467446043C55F8047B46F8047F032C68
:104F4000F8D8AEF1040424F00304043421442344CB
:104F500002F0030262B1013B0A4411F8014B03F86D
:104F6000014F8A42F9D1F0BD0346F3E70346F2E769
:104F7000F0BD7246EEE700BF0148FFF7CBBB00BFB4
:104F80007C1640200148FFF7C7BB00BF7C164020BD
:104F9000002900F095802DE9F04F0D46164683B0AC
:104FA000804606F10B07FFF7E7FF55F804EC162FD4
:104FB0002EF00304A5F108093CD810221746BE4282
:104FC0003DD8944243DAC44B996809EB0400884207
:104FD00000F0B480436823F0010101444968C90727
:104FE0004CD51EF0010F00F09B8031464046FFF784
:104FF00015FC064600283AD055F8043C23F001037E
:105000004B44A0F108029A4200F02181221F242A79
:1050100000F20781132A00F2DB8003462A4611685A
:1050200019605168596092689A6029464046FFF7B6
:1050300091F81CE027F00707002F3A46BFDA002658
:105040000C233046C8F8003003B0BDE8F08F2E4680
:10505000E31B0F2B1ED8D9F8043003F001032343C0
:105060004C44C9F80430636843F001036360404670
:10507000FFF788FF304603B0BDE8F08F23F003034D
:10508000E11891421FDBC36882682E46D3600C464C
:105090009A60DDE7D9F8042009EB070102F001026C
:1050A0004C4443F001031743C9F804704B60636834
:1050B00043F00103083163604046FFF74BF8D6E741
:1050C0001146FFF7ABBB1EF0010F8ED155F8081C3F
:1050D000A9EB010ADAF8041021F003010B44234480
:1050E000934225DBC26881685646CA609160DAF84F
:1050F0000C1056F8080F221F242AC160886000F2A5
:105100009480132A6FD92968CAF808106968CAF808
:105110000C101B2A00F2A28008350AF1100263E08D
:1051200055F8083CA9EB030ADAF8041021F0030152
:1051300063189342FFF659AF5646D8E7416821F00D
:10514000030BA34407F11000834556DA1EF0010F4C
:105150007FF44BAF55F8081CA9EB010ADAF80410EC
:1051600021F003018B445845E2DC5646DAF80C1076
:1051700056F8080F221F242AC160886000F28F8031
:10518000132A40F28A802968CAF808106968CAF8A8
:105190000C101B2A00F28A8008350AF110022968D7
:1051A000116069685160A96891600AEB0701ABEB77
:1051B000070242F0010299604A60DAF8043003F015
:1051C00001031F434046CAF80470FFF7DBFE51E7B6
:1051D0002B6803606B6843601B2A2DD800F108031D
:1051E00005F108021BE732462968116069685160C1
:1051F000A96891601C46D1462AE709EB0701ABEB91
:10520000070B4BF0010299604A6055F8043C03F02B
:1052100001031F43404645F8047CFFF7B3FE2E46CA
:1052200028E72946FFF744FEFFE6294630461C469C
:10523000D146FFF73DFE0BE7AB688360EB68C360C8
:10524000242A17D000F1100305F11002E7E650F808
:10525000043C23F003031C442E46F9E6A968CAF86F
:105260001010E968CAF81410242A0CD010350AF17D
:105270001802B9E72B6903616B69436105F11802F4
:1052800000F11803CBE62A69CAF818206A69CAF83F
:105290001C2018350AF12002A6E732467FE729468E
:1052A00030460193FFF704FE019B7EE7A968CAF828
:1052B0001010E968CAF81410242A03D010350AF136
:1052C00018026CE72A69CAF818206A69CAF81C2013
:1052D00018350AF1200262E7A8054020838903F00F
:1052E0000903092B01D000207047FEF7EBBC00BF7B
:1052F000F8B50C46054610B1836B002B45D0B4F9C8
:105300000C309AB2970407D4626E43F4005322F42F
:1053100000526266A3819AB200219606616031D480
:10532000500722D5216B61B104F14003994202D0AC
:105330002846FEF70FFFE36B636000202063002B1D
:105340003FD12369002B4CD0B4F90C70BEB2B30727
:105350001ED12269226028466369256AE169A8474F
:105360000028606009DD0020F8BDD1063ED5120797
:105370002AD443F00403A381E3E7A38919D143F0BE
:105380002003A3814FF0FF30F8BDFEF7DBFCB6E74A
:105390001A4B1B4918680123A38106F00906FFF781
:1053A00037F9092EA781D4D121462846FEF7C0FB44
:1053B000CFE7002243F04003A38162604FF0FF304B
:1053C000F8BDA36B2360F8BD21462846FEF750FCCC
:1053D0000028D7D1B4F90C30A060A06123F00803F5
:1053E000C7E721462846FFF7C7F9ADE743F040037A
:1053F00009222A604FF0FF30A381F8BDC468400045
:10540000DD52400038B5074C0023054608462360AE
:10541000FBF716FF431C00D038BD2368002BFBD0E0
:105420002B6038BD9016402070B40C785E2C2FD0C5
:1054300000224D1C1646431E00F1FF0103F8012F08
:105440008B42FBD174B186F0010202556E1C16F836
:10545000013C2D2B31460DD05D2B04D033B11C46C1
:105460003546F2E7691E084670BC70472946084673
:1054700070BC704769785D29F1D08C42EFDC023551
:1054800003190134A14203F8012FFADC0236DEE7EA
:1054900001224C7816468D1CCDE700BF10B50C4696
:1054A000B1F90E1000F076FE002803DB236D0344F3
:1054B000236510BDA38923F48053A38110BD00BFD1
:1054C0002DE9F0411646B1F90C201F46D3050C46D4
:1054D000054607D500220223B1F90E1000F044FE64
:1054E000B4F90C20B4F90E1022F48052A2813B468C
:1054F00032462846BDE8F04100F024BD10B50C4608
:10550000B1F90E1000F030FEA389421C0EBF23F447
:10551000805343F480532065A38110BDB1F90E1070
:1055200000F088BD00000000000000000000000046
:10553000000000000000000000000000000000006B
:1055400090F800F06DE9024520F007016FF0000CC3
:1055500010F0070491F820F040F049804FF000046B
:105560006FF00700D1E9002391F840F000F1080046
:1055700082FA4CF2A4FA8CF283FA4CF3A2FA8CF37E
:105580004BBBD1E9022382FA4CF200F10800A4FAE5
:105590008CF283FA4CF3A2FA8CF3E3B9D1E9042339
:1055A00082FA4CF200F10800A4FA8CF283FA4CF370
:1055B000A2FA8CF37BB9D1E9062301F1200182FA2A
:1055C0004CF200F10800A4FA8CF283FA4CF3A2FA30
:1055D0008CF3002BC6D0002A04BF04301A4612BA3E
:1055E000B2FA82F2FDE8024500EBD2007047D1E941
:1055F000002304F00305C4F100004FEAC50514F0D0
:10560000040F91F840F00CFA05F562EA05021CBFA0
:1056100063EA050362464FF00004A9E72DE9F84F5D
:10562000DDF828900F46804616461D468A4600E063
:10563000A2465446484614F801BBFFF755F85844B3
:10564000427812F00802F3D1BBF12D0F4FD0BBF11D
:105650002B0F04BF94F800B00AF102041DB1102D05
:1056600056D0AC4604E0BBF1300F60D00A25AC4602
:10567000002A0CBF6FF000494FF000490021B9FB30
:10568000FCFE08460CFB1E9A05E029D00CFB0030FE
:10569000012114F801BBABF13003092B05D9ABF1A3
:1056A0004103192B0BD8ABF137039D420FDDB1F14C
:1056B000FF3FEED08645E8D24FF0FF31E9E7ABF18E
:1056C0006103192B03D8ABF157039D42EFDC4B1C50
:1056D00013D002B1404246B1C1B93760BDE8F88F7E
:1056E0009A45D3DA4FF0FF31D3E7BDE8F88F94F84D
:1056F00000B001220AF10204B0E72223C8F800300A
:10570000EEB1671E48463760BDE8F88F8146F8E77E
:10571000BBF1300FA5D1237803F0DF03582BA0D1C4
:105720004FF0100C94F801B065460234A0E72378DE
:1057300003F0DF03582BF3D00825AC4698E7484622
:10574000BDE8F88F30B5064C064D2468646B83B015
:10575000002C08BF2C460094FFF760FF03B030BD5B
:10576000080040203C0440202DE9F04F85B01E4643
:1057700002910390009288460E9F00E0A84645469D
:10578000384615F8014BFEF7AFFF2044437813F07D
:105790000803F3D12D2C00F081802B2C03BF2C7833
:1057A000019308F10205019366B1102E00F0888084
:1057B000019BB0464FEAE6797BB94FF0FF3A6FF0B4
:1057C00000470EE0302C00F08A804FF00A084FF0BE
:1057D00000090A26019B002BEFD04FF0000A4FF082
:1057E000004742464B465046394600F0E9FC4B46DE
:1057F000934650464246394600F0E2FC4FF0000E18
:10580000002200230FE044D002FB09F408FB03440C
:10581000A2FB0823234412EB0C0243EBEC734FF082
:10582000010E15F8014BA4F1300CBCF1090F06D99B
:10583000A4F1410CBCF1190F0DD8A4F1370C664549
:1058400012DDBEF1FF3FECD0994208BF9042DAD2A0
:105850004FF0FF3EE5E7A4F1610CBCF1190F03D84E
:10586000A4F1570C6645ECDCBEF1FF3F1CD001995A
:1058700011B1524263EB4303009929B1BEF1000F0D
:105880001BD1029D00990D601046194605B0BDE878
:10589000F08FE345B8DA4FF0FF3EC2E701232C78E2
:1058A000019308F102057FE7039A22231360009B0E
:1058B0002BB352463B46013DE4E792461F46F8E7CC
:1058C000302C17D12B7803F0DF03582B12D16C78D2
:1058D0004FF010084FF00009023510267AE72B78B8
:1058E00003F0DF03582BF2D04FF008084FF0000907
:1058F00008266FE74FF010084FF000096AE752469C
:105900003B46C1E730B5064C064D2468646B83B056
:10591000002C08BF2C460094FFF726FF03B030BDD3
:10592000080040203C0440202DE9F84FDDF8289085
:105930000E460746154698468A4600E0A24654465B
:10594000484614F801BBFEF7CFFE5844407810F0EB
:105950000800F3D159462D2959D02B2904BF2178AD
:105960000AF10204B8F1000F0CD0B8F1100F53D0B7
:105970004FF0FF3CBCFBF8FC08FB0CFA6FEA0A0A8C
:10598000C14608E0302958D04FF00A08DFF8DCC0E3
:10599000C1464FF0050A00239E4605E02AD009FBC8
:1059A0000E2E012314F8011BA1F13002092A05D99A
:1059B000A1F14102192A0AD8A1F1370290450EDD62
:1059C000002B01DBE645E9D94FF0FF33EAE7A1F10F
:1059D0006102192A03D8A1F157029045F0DC002B8F
:1059E0000DDB08B1CEF1000E0DB173B92E6070461B
:1059F000BDE8F88F5245D2DD4FF0FF33D2E72223C6
:105A00003B604FF0FF3E002DF1D0661EEEE721789F
:105A100001200AF10204A5E730291BD1237803F005
:105A2000DF03582B1CD14FF010096178C8464FF0A6
:105A30000F0A02346FF0704CADE7237803F0DF03F8
:105A4000582BF0D04FF00808C1464FF0070A6FF00E
:105A5000604CA0E74FF00F0A6FF0704CC1469AE718
:105A6000C1466FF0704C4FF00F0A94E7999999195D
:105A700030B5064C064D2468646B83B0002C08BF1B
:105A80002C460094FFF750FF03B030BD08004020C3
:105A90003C0440202DE9F04F85B0934602910390DD
:105AA0009A460F460E9E00E02F463D46304615F8BA
:105AB000014BFEF719FE2044437813F00803F3D19D
:105AC0002D2C00F089802B2C03BF2C780193BD1C5A
:105AD0000193BAF1000F19D0BAF1100F00F08180D4
